{
  "_format": "hh-sol-artifact-1",
  "contractName": "user",
  "sourceName": "contracts/User_info.sol",
  "abi": [
    {
      "inputs": [
        {
          "internalType": "uint256",
          "name": "_userid",
          "type": "uint256"
        }
      ],
      "name": "getuser",
      "outputs": [
        {
          "internalType": "string",
          "name": "",
          "type": "string"
        },
        {
          "internalType": "string",
          "name": "",
          "type": "string"
        },
        {
          "internalType": "string",
          "name": "",
          "type": "string"
        },
        {
          "internalType": "string",
          "name": "",
          "type": "string"
        }
      ],
      "stateMutability": "view",
      "type": "function"
    },
    {
      "inputs": [
        {
          "internalType": "uint256",
          "name": "_userid",
          "type": "uint256"
        },
        {
          "internalType": "string",
          "name": "_name",
          "type": "string"
        },
        {
          "internalType": "string",
          "name": "_emailid",
          "type": "string"
        },
        {
          "internalType": "string",
          "name": "_edu",
          "type": "string"
        },
        {
          "internalType": "string",
          "name": "_eduname",
          "type": "string"
        }
      ],
      "name": "register",
      "outputs": [],
      "stateMutability": "nonpayable",
      "type": "function"
    }
  ],
  "bytecode": "0x608060405234801561001057600080fd5b50610934806100206000396000f3fe608060405234801561001057600080fd5b50600436106100365760003560e01c80631aa11e901461003b57806349ccfc7114610057575b600080fd5b6100556004803603810190610050919061060c565b61008a565b005b610071600480360381019061006c91906105e3565b610199565b604051610081949392919061071c565b60405180910390f35b836001800190805190602001906100a2929190610436565b5082600160020190805190602001906100bc929190610436565b5081600160030190805190602001906100d6929190610436565b5080600160040190805190602001906100f0929190610436565b50600160008087815260200190815260200160002060008201548160000155600182018160010190805461012390610846565b61012e9291906104bc565b50600282018160020190805461014390610846565b61014e9291906104bc565b50600382018160030190805461016390610846565b61016e9291906104bc565b50600482018160040190805461018390610846565b61018e9291906104bc565b509050505050505050565b60608060608060008060008781526020019081526020016000206040518060a0016040529081600082015481526020016001820180546101d890610846565b80601f016020809104026020016040519081016040528092919081815260200182805461020490610846565b80156102515780601f1061022657610100808354040283529160200191610251565b820191906000526020600020905b81548152906001019060200180831161023457829003601f168201915b5050505050815260200160028201805461026a90610846565b80601f016020809104026020016040519081016040528092919081815260200182805461029690610846565b80156102e35780601f106102b8576101008083540402835291602001916102e3565b820191906000526020600020905b8154815290600101906020018083116102c657829003601f168201915b505050505081526020016003820180546102fc90610846565b80601f016020809104026020016040519081016040528092919081815260200182805461032890610846565b80156103755780601f1061034a57610100808354040283529160200191610375565b820191906000526020600020905b81548152906001019060200180831161035857829003601f168201915b5050505050815260200160048201805461038e90610846565b80601f01602080910402602001604051908101604052809291908181526020018280546103ba90610846565b80156104075780601f106103dc57610100808354040283529160200191610407565b820191906000526020600020905b8154815290600101906020018083116103ea57829003601f168201915b505050505081525050905080602001518160400151826060015183608001519450945094509450509193509193565b82805461044290610846565b90600052602060002090601f01602090048101928261046457600085556104ab565b82601f1061047d57805160ff19168380011785556104ab565b828001600101855582156104ab579182015b828111156104aa57825182559160200191906001019061048f565b5b5090506104b89190610549565b5090565b8280546104c890610846565b90600052602060002090601f0160209004810192826104ea5760008555610538565b82601f106104fb5780548555610538565b8280016001018555821561053857600052602060002091601f016020900482015b8281111561053757825482559160010191906001019061051c565b5b5090506105459190610549565b5090565b5b8082111561056257600081600090555060010161054a565b5090565b6000610579610574846107ae565b61077d565b90508281526020810184848401111561059157600080fd5b61059c848285610804565b509392505050565b600082601f8301126105b557600080fd5b81356105c5848260208601610566565b91505092915050565b6000813590506105dd816108e7565b92915050565b6000602082840312156105f557600080fd5b6000610603848285016105ce565b91505092915050565b600080600080600060a0868803121561062457600080fd5b6000610632888289016105ce565b955050602086013567ffffffffffffffff81111561064f57600080fd5b61065b888289016105a4565b945050604086013567ffffffffffffffff81111561067857600080fd5b610684888289016105a4565b935050606086013567ffffffffffffffff8111156106a157600080fd5b6106ad888289016105a4565b925050608086013567ffffffffffffffff8111156106ca57600080fd5b6106d6888289016105a4565b9150509295509295909350565b60006106ee826107de565b6106f881856107e9565b9350610708818560208601610813565b610711816108d6565b840191505092915050565b6000608082019050818103600083015261073681876106e3565b9050818103602083015261074a81866106e3565b9050818103604083015261075e81856106e3565b9050818103606083015261077281846106e3565b905095945050505050565b6000604051905081810181811067ffffffffffffffff821117156107a4576107a36108a7565b5b8060405250919050565b600067ffffffffffffffff8211156107c9576107c86108a7565b5b601f19601f8301169050602081019050919050565b600081519050919050565b600082825260208201905092915050565b6000819050919050565b82818337600083830152505050565b60005b83811015610831578082015181840152602081019050610816565b83811115610840576000848401525b50505050565b6000600282049050600182168061085e57607f821691505b6020821081141561087257610871610878565b5b50919050565b7f4e487b7100000000000000000000000000000000000000000000000000000000600052602260045260246000fd5b7f4e487b7100000000000000000000000000000000000000000000000000000000600052604160045260246000fd5b6000601f19601f8301169050919050565b6108f0816107fa565b81146108fb57600080fd5b5056fea26469706673582212206b015de13f2096153436450ad9483dbd4d041669ec2d3a3f09052a2fc82be30064736f6c63430008000033",
  "linkReferences": {},
  "deployedLinkReferences": {}
}